:020000040800F2
:1000000068090020D5000008A92C00083326000844
:1000100000000000000000000000000000000000E0
:100020000000000000000000000000004F2F00084A
:100030000000000000000000F12C0008512F000813
:100040000501000805010008050100080501000878
:100050000501000805010008050100080501000868
:100060000501000805010008050100080501000858
:100070000501000805010008050100081D30000801
:100080000501000800000000000000000501000854
:100090000000000005010008050100080501000836
:1000A0000000000005010008050100080501000826
:1000B00005010008000000008D0B00080501000884
:1000C0000348854600F074FC00480047ED3E0008F8
:1000D000680900200C4880F308880C480168090E64
:1000E0000B4A914205D10B480B4901600B480C4962
:1000F00001600C4880470C480047FEE7FEE7FEE73A
:10010000FEE7FEE7FEE700006809002004000000AB
:100110001F00000018100240010000000000014014
:1001200000000000C12F0008C100000830B50B46D8
:10013000014600202022012409E00D46D5409D42C1
:1001400005D31D469540491B254695404019154647
:10015000521E002DF1DC30BD10B5202A04DB08460C
:10016000203AD040002110BD0B46D340D04020247F
:10017000A21A91400843194610BD0321001D401EDC
:10018000037812021A43491EF9D510467047F8B594
:1001900002464A40D40F42004B0052085B089A4284
:1001A00002D20246084611464A0023D0C30D4A0037
:1001B000DDB2120EAD1A202D35DA49020126490AA8
:1001C000F6058A19002C00D0524220214F1B1146FF
:1001D000B9402A411018C20D9A4221D0002C17D0E4
:1001E000012D08DCDA05801AD20F8019D207DBB2A4
:1001F00000F0DFFAF8BDDA05801A012340001B0683
:10020000C01880185A428018CA0F1043490007E0EE
:100210004908C2071143DA05801A8019400880187E
:1002200000F0BFFAF8BD61000122511A001BF7E788
:100230000122D2075140AAE70122D2075040A6E787
:10024000024670B54A40D30FDB0740002DD04A006C
:100250002AD0010E140E000212020919400A520A95
:100260008418E50104465443000A120A2E04504340
:10027000A4194219200CC543AA18120C0125AD037C
:10028000521C521912047F39240400D0521C10430E
:1002900001D44000491EC2B20C06C0092018401CFF
:1002A0004008802A02D003E0002070BD40084000D2
:1002B000002900DA0020184370BD70B502464A409C
:1002C000D50F40004A00ED0740085208002814D01E
:1002D000002A12D0C40DD30D41020120C0055202E4
:1002E000490A520AE41A091812187D34914201D3BE
:1002F000641C00E04900002C01DA002070BD0023DE
:10030000914201D3891A0343400849000028F7D1DC
:1003100000290AD0914202D10121C90705E091428A
:1003200001D2012101E00121C943E005C0184019B3
:1003300000F037FA70BD420005D04200120E524262
:100340008A4201DB00207047C90508187047000089
:10035000F0B507460846584087B0C00F04904800E3
:100360000E46590040084908BC1A884105D2384653
:1003700031461E4617460B460246580040081043B9
:100380004CD0300D039040055900400D490D0590AB
:10039000401A0290402872DA18030121000B090567
:1003A0000843019004980092002805D00199524218
:1003B0000020884100920190029840210A1A019978
:1003C000009800F0CBF905460C466B4607CB00F0D1
:1003D000D5F9C0197141039A0E0D0023D717564065
:1003E0001A467A40164344D0049A002A2DD0029A25
:1003F000012A039A15DC1205C01A9141012636051F
:10040000001C7141D20F059ED20700930192029603
:100410002A46234600F013FA07B0F0BD38463146AD
:10042000FAE71605224A0F46B218C01AB741012151
:100430000905001C4F4100187F41114618187941E9
:10044000E20F10436D19644113E0E2076D08154394
:100450006408C2071443039A01261205C01A914189
:100460003605001C7141CE07400830434908C018CA
:1004700051412A46234600F0D5F9CDE7FFE704981D
:1004800001224000C117121A00238B410498314603
:10049000C417381AA141EEE730B40124E4076340E1
:1004A00030BC55E730B40124E407614030BC4FE76D
:1004B0000000E0FFF0B51FB488B00B990998002444
:1004C00048400999C00F490049080991C0070B9994
:1004D0000090490049080B9109990898A6460843DD
:1004E0001CD00B990A98084318D0099801244000A1
:1004F000420D4800410D099824050003000B2043DC
:1005000009900B980003000B20430B9050181C49D6
:100510004018002201901446104605E000200146D4
:100520000DB0F0BD032801DA034600E003239C462A
:10053000C11A0AAE0AE05F0008ADED5B4F00F75B41
:100540007D430027AA187C41491C5B1E6145F2DDF2
:10055000410004AB5A522104120C0A43240C401CE3
:100560000828DFDB01980290009970460191009005
:10057000059B049A0799069800F061F9D0E70000FE
:100580000DFCFFFFF0B50C465C4085B0E40FE407BE
:1005900003944C000026640859009446490802461A
:1005A0000296224321D062460A431ED06200570DB4
:1005B0004A000E032303550D012402462C4924054D
:1005C000781B1B0B360B40182343264361460090D3
:1005D0001C46501AB44103D30098401C009002E01E
:1005E000921800985B41002803DA0020014605B00C
:1005F000F0BD0020012109050746864611E064464A
:100600001D46141BB54106D36546521BB3417446C3
:1006100007430C43A646CD074008490828439218D3
:100620005B4105460D43EAD11046184313D060469E
:10063000194650407140084306D06046101AB34135
:1006400006D20122002306E000220123DB0702E09C
:100650000122D2435310009874460105381C6141B1
:10066000029C039D0019694100F0DCF8BFE700001F
:10067000FD030000C217C10F504010B54018CA0753
:100680009623002100F095F810BD10B500229623A6
:10069000114600F08EF810BDC20FD207400040088E
:1006A0000BD0C10D0723DB01C91840020905400A20
:1006B0001143C208400711437047002001467047AC
:1006C00010B5002904DB0124E40740428C41214697
:1006D000002B04DB1C460123DB075242A3418B4263
:1006E00000D1824210BD000010B5002904DB0124B6
:1006F000E40740428C412146002B04DB1C460123C9
:10070000DB075242A341994200D1904210BD000044
:10071000CB0FDB07490010B5490802460A4307D052
:100720000A0D07240903E401090B121B002A01DC4E
:10073000002010BDC900440F0C43C100E018D205D1
:10074000801800F02EF810BD0122D207002800DB2F
:10075000101A002900DB511A8142704710B5202A77
:1007600004DB0146203A9140002010BD9140202337
:100770009C1A0346E3401943904010BD10B5202A4F
:1007800006DBCB170846203A1041C1170B4306E0A1
:100790000B461341D0402024A21A91400843194629
:1007A00010BD002904DA401C490001D14008400076
:1007B000704770B40024050C05D11024000402D148
:1007C000002921D01124050E01D100020834050FA3
:1007D00001D10001241D850F01D18000A41C002837
:1007E00001DB4000641C002908D020252E1B0D468B
:1007F000F540A14000D001212943084301061B1BFD
:10080000000ADB1D02D5002070BC7047DB051818FC
:1008100080180029F8DA401C4900F5D170BC400866
:100820004000704710B5002B08DA0024401C6141DD
:1008300092185B411A4301D14008400010BDF0B549
:100840001FB482B005460C0003D0084602F067FCD6
:1008500002E002F064FC2030024600902146284667
:10086000FFF77CFF049B059A04460F46184311438B
:10087000084314D0184610431BD0009840210A1A90
:1008800018460599FFF768FC05460E46009A05993B
:100890000498FFF763FF084305D0012004E02046D9
:1008A000394607B0F0BD0020C11705430E432C4365
:1008B000374300990E986305401A7905E40A00222F
:1008C0000C43FD0A0A3002D500200146E9E7010584
:1008D000101969410C9C0D9D00196941FFF7A2FF99
:1008E000DFE770B54B005B0803430BD04B005C0D9A
:1008F000002633466542B341D417AD1AA34102DB4B
:100900000020014670BD12053018514170BDFEB582
:1009100000231A461B1A8A4103DB0020014603B05C
:10092000F0BD4A000D0301212D0B0905520D0D43A9
:10093000D10702D100186D41521E5110FF31FF3115
:100940000131002704463E46384600970191024691
:10095000012100200905FFF7FFFBC3197141F818B9
:10096000324684468E464A4161462846611A904185
:1009700004D36046241A954176461F4624190098F0
:100980006D41401C00903428E1DDF919304670417A
:10099000091BA84103D20022D243134601E00022E2
:1009A000134601980105381C7141FFF73BFFB6E77C
:1009B000064C0125064E05E0E36807CC2B430C3CB2
:1009C00098471034B442F7D3FFF77EFB504000083D
:1009D0007040000870B58C180578401C6B075B0FE1
:1009E00001D10378401C2A1106D10278401C03E093
:1009F00006780E70401C491C5B1EF9D12B0705D4EC
:100A00000023521E0DD40B70491CFAE70378401CDA
:100A1000CB1A921C03E01D780D70491C5B1C521E02
:100A2000F9D5A142D8D3002070BD000010B50D4B00
:100A30001C6B22601C6B62601C6B0022A2601C6B32
:100A4000E2601C6B082222611A6B00685061186B0F
:100A5000096881616421184600F064FA002800D01A
:100A6000012010BDA401002070B5002959D0826B6F
:100A70000B011C46FF340568B1342D59042635405E
:100A8000956005682D594ED0ED08556005682C59C4
:100A9000A407E40FD4601C46FF340568B5342D5913
:100AA0002D072D0F156105682C592404240ED461DF
:100AB00011621C46FF340568B9342D591575056857
:100AC0002D592D0A557505682D592D0C95750568FC
:100AD0002C59FF33240ED4750468BD33E4581476C2
:100AE0000468E458240A54760468E458240C947684
:100AF0000468E3581B0ED37620220368002915D022
:100B00001C6914431C61026853695024A343536158
:100B100002462032537F222B0FD0537F322B0CD032
:100B200011E0426BA4E76D0D1560AFE7DC6814437C
:100B3000DC60026853690A24E8E703685C698F2572
:100B40002D02AC435C61122301240029517F06D0A1
:100B5000522913D0622913D0722906D112E04229FA
:100B60000CD0622906D0722906D0547700F0D8F94B
:100B7000002070BD322106E0522104E05377F5E7F2
:100B8000222100E042215177F0E7000010B5024831
:100B900000F006F810BD0000A4010020704700001E
:100BA000F8B5044600680026C1681027C906002968
:100BB00005DA4169C943090701D47E01C76020688D
:100BC0000169C90607D54169C943490603D4012112
:100BD00089020E430761216848692546C043C00762
:100BE000203500283DD18A686648904307D08A683E
:100BF0006548904303D08A686448904331D188683F
:100C0000800705D48868800502D48868800320D5D1
:100C10004A692046520852004A61697F122905D16B
:100C2000036859698F22120291435961697F4229F1
:100C300008D0522908D0722908D00121697700F024
:100C400047FA09E0222202E0322200E062226A77BB
:100C5000F5E70120C0020643206881684C4A114331
:100C6000816020684169C943890706D4C06880074C
:100C700003D000212046FFF7F7FE20684169C943F1
:100C8000C90606D40069800703D001212046FFF77A
:100C9000EBFE206C3043206420688169C9070BD0CB
:100CA0004169C943C90507D44169C943090403D44B
:100CB000216C012211432164816989070BD54169A7
:100CC000C943890507D44169C943090403D4216C88
:100CD00002221143216481694A070421002A0ADAA9
:100CE0004269D243520506D44269D243120402D467
:100CF000226C0A43226482695206520F22D0426952
:100D0000D24312051ED44269D24312041AD4836915
:100D100070221340402B2AD006DC102B09D0202B48
:100D20000AD0302B0BD11FE0502B23D0602B06D1E3
:100D300023E0236C082623E0236C3B432364836970
:100D400093438361206C00280DD0206842680A43D9
:100D5000426001206877206841690E4A1140416174
:100D60002046FFF71BFFF8BD236C202608E0236C0C
:100D7000402605E0236C802602E0236CFF26013626
:100D80003343DBE70100000400010008000001100C
:100D900019050100A470FFFFF8B5040006D0254630
:100DA0002035687F0026002802D005E00120F8BD2C
:100DB0002E77204600F086F80220687721680A68BE
:100DC00082430A602068016801221143016000F03B
:100DD00039FA074604E000F035FAC01B0A285ED84D
:100DE00020684068C007F6D0206841680427C9071A
:100DF000002960D0A2698021012A02683DD08A437F
:100E00000260E069402101282068026837D08A43E7
:100E10000260206A202101282068026831D08A43BC
:100E20000260616A1020012921680A682BD0824380
:100E30000A60A16A0820012921680A6825D0824336
:100E40000A60E06A01282068016820D0B943016087
:100E5000E168A06862690843216911430843616839
:100E6000491E08432168C861206801684908490093
:100E7000016000F0E7F9009015E00A43C0E70A437B
:100E8000C6E70A43CCE70243D2E70243D8E7394337
:100E9000DDE700F0D7F90099401A0A2803D90320AA
:100EA00068772E77F8BD20684068C007F1D12068C8
:100EB0004068C00701D06F7778E726640120687723
:100EC0000020F8BD00B50068134987B0884220D1E2
:100ED0001248C269012149060A43C261C06908403B
:100EE00005900320C0020090022001900020029093
:100EF000032003900420049009206946C00600F0F6
:100F0000F7F8002211461E2000F000FA1E2000F023
:100F1000F3F907B000BD000000640040001002407B
:100F200070470000F3B50446006883B08168254629
:100F300049012035002905DB8168090102D4816857
:100F4000C9006FD5297F01290AD001212977697F3E
:100F5000222908D0322908D062290DD0122105E0BB
:100F6000022005B0F0BD422100E05221697781687E
:100F7000490103D5002707E07221F7E781680901DD
:100F800001D5012700E002273E010096FF36813699
:100F90008159C907C90F8151206B216883688A591B
:100FA000002B40D01A43C3684068C00003431A4373
:100FB0008A51206B017C0907090F016100982168A3
:100FC000FF3085300A58120912010A5021680A5868
:100FD000236B1B691A430A50206B01901530FFF7F1
:100FE000CCF8010201982268007D01430098FF308F
:100FF00089301150206B01901930FFF7BEF80102C3
:1010000001982268007E01430098FF308D30115016
:101010002068815901221143815100F013F9002603
:10102000009029E049E0C36800881A434005024364
:10103000BEE70498401C1FD00498002806D000F09A
:1010400001F90099411A0498814215D90320687763
:10105000002F0AD02068012F81680AD00122D20512
:10106000114381602E7703207BE72068816880220E
:10107000F6E70122D203F3E7002F0FD02068012FFB
:1010800081680FD00F488843D3D1687F42280BD0A6
:1010900052280BD072280ED0012008E02068816809
:1010A0000948F0E70948EEE7222000E0322068779F
:1010B0002E77002055E76220F9E7042068770120A9
:1010C0004FE70000000001100100000400010008CB
:1010D000704731B500F0B6F8009C0546601C00D0A2
:1010E000641C00F0AFF8401BA042FAD338BD0000EA
:1010F000F8B5002389E001249C402A46A4462240FA
:101100007ED04C68022C01D0122C0CD1DC08A4003B
:1011100027183C6A5D07ED0E0F26AE40B4430E69FA
:10112000AE4026433E6205685E000324B4400F795A
:10113000A543BF07BF0FB7402F4307604D68012D80
:1011400005D0022D03D0112D01D0122D0ED18568AE
:10115000CF68A543B7402F43876047686546AF43D4
:101160000D79ED06ED0F9D403D434560C568A543F3
:101170008C68B4402C43C4604C68E40044D5264CD1
:10118000A56901263543A561A4699D0834400094F2
:10119000224CAD002F19BC689D072E0F0F25B540BE
:1011A000AC430925ED06A84201D100250AE01C4DFB
:1011B000A84201D1012505E01A4DA84201D102251E
:1011C00000E00525B5402543BD60174C25684E68F5
:1011D0009543F60300D51543256065684E68954331
:1011E000B60300D515436560A5684E689543F602C1
:1011F00000D51543A560E5684E689543B60200E04A
:1012000002E000D51543E5605B1C0A681546DA402C
:1012100000D070E7F8BD000000100240000001405F
:10122000000400480008004800040140006908402C
:1012300000D001207047002A01D08161704781628F
:1012400070470000014800687047000098010020C6
:1012500002480168491C01607047000098010020A5
:1012600010B506480168102211430160002000F00B
:1012700007F800F017F8002010BD00000020024021
:1012800010B5044600F0F0F87D21C900FEF74EFFCE
:1012900001F02CF800222146501E00F037F8002003
:1012A00010BD000008B51248816901221143816117
:1012B000816911400091C26901040A43C261C06999
:1012C0000022084000901146501F00F01FF8002235
:1012D0001146901E00F01AF800221146501E00F030
:1012E00015F80448016810221143016008BD000090
:1012F0000010024000000140C106C90E01208840D4
:10130000014908607047000000E100E010B501F0FD
:10131000CDFC10BDF8B505464E480E460068C00726
:10132000C00FB0420AD24B48016849084900314316
:1013300001600068C007C00FB04270D12878464CE9
:10134000800705D56068F0218843A968084360607C
:101350002878C00753D06868012817D0022818D011
:10136000032819D021688907002958DA616889089B
:10137000890001436160FFF765FF6968074601293D
:1013800013D002291DD0032927D034E02168890316
:10139000EAE721688901E7E7616BC903E4E7FFF742
:1013A00051FFC11B2D48814223D860680007800F80
:1013B0000128F4D123E0FFF745FFC11B27488142F4
:1013C00017D860680007800F0228F4D117E0FFF7F4
:1013D00039FFC11B214881420BD860680007800F8C
:1013E0000328F4D10BE0FFF72DFFC11B1B488142FE
:1013F00001D90320F8BD60680007800FF3D11548BC
:101400000168C907C90FB1420BD9016849084900F1
:10141000314301600068C007C00FB04201D0012015
:10142000F8BD2878400706D560680721090288437F
:10143000E9680843606000F02DF86168084A090611
:10144000090F515CC840074908600020FFF718FFEA
:101450000020F8BD00200240001002408813000068
:10146000983F00089C010020014800687047000078
:101470009C0100200448054900684968044A490560
:10148000490F515CC84070479C0100200010024089
:10149000A83F000830B516A30FCB89B06C460FC427
:1014A00017A30FCB0FC41A494A680C2014460440F6
:1014B0001848042C05D0184B082C04D00C2C00D153
:1014C000184609B030BD9402240F6D462C5DC96AE0
:1014D00004AD0907090FD203695C920F022A02D0FA
:1014E000032A00D11846FEF721FE6043E9E7000019
:1014F00002030405060708090A0B0C0D0E0F101055
:101500000102030405060708090A0B0C0D0E0F1053
:101510000010024000127A00006CDC02FEB50446A6
:101520000078F04EF04DC00748D068680007800F83
:1015300001281FD068680007800F022804D168685E
:10154000C003800F022815D06168012919D001203D
:101550008004002901D0052917D02968B1432960EA
:10156000296881432960606800281BD0FFF76AFE64
:10157000074613E02868800320D56068002876D0ED
:101580001CE0286830432860EDE7296801432960A2
:10159000F7E7FFF757FEC01B642869D82868800367
:1015A000F7D50BE0FFF74EFE074604E0FFF74AFED3
:1015B000C01B6428F1D828688003F7D420788007FE
:1015C0003ED568680007800F14D068680007800F58
:1015D000022804D16868C003800F01280AD0E0689F
:1015E000002828681DD0012108432860FFF72AFE43
:1015F00007460BE0286880070BD5E068012836D144
:1016000007E0FFF71FFEC01B0228C6D82868800726
:10161000F7D52868F82188432169C9000843286064
:101620000EE0400840002860FFF70CFE074604E08B
:10163000FFF708FEC01B0228AFD828688007F7D440
:101640002078000724D5E0690028686A11D00121BC
:1016500008436862FFF7F6FD074604E0FFF7F2FD76
:10166000C01B022899D8686A8007F7D510E036E1D8
:10167000D1E0400840006862FFF7E4FD074604E05F
:10168000FFF7E0FDC01B022887D8686A8007F7D4FF
:10169000207804274007002861DA00200190E869DB
:1016A000C00008D4E969B8060143E961E96901406D
:1016B0000120009101908D480168C90511D401688D
:1016C000821511430160FFF7BDFD009005E0FFF7B3
:1016D000B9FD0099401A642897D884480068C0056D
:1016E000F5D5A06801280AD0002801D0052811D01E
:1016F000286A400840002862286AB84302E0286A45
:10170000012108432862A068002812D0FFF79AFD43
:1017100000900AE0286A38432862F0E7FFF792FD5C
:101720000099411A7248814275D8286A8007F5D518
:101730000DE0FFF787FD009006E0FFF783FD0099BD
:10174000411A6B48814266D8286A8007F5D401980F
:10175000002804D0E969012000078143E96120786D
:10176000C00635D5606901280CD0401D686B24D0B7
:1017700038436863686B400840006863FFF762FDA8
:10178000074622E0686B38436863686B01210843B1
:101790006863FFF757FD074604E0FFF753FDC01BE2
:1017A000022838D8686B8007F7D5686BF821884322
:1017B000A169C900084368630AE0B8436863F4E7B5
:1017C000FFF740FDC01B022825D8686B8007F7D4BF
:1017D0002078800637D568680007800F032813D06B
:1017E00068680007800F022804D16868C003800F72
:1017F000032809D0206A0028686B16D0304368633C
:10180000FFF720FD06460CE0686BC0031BD5206A7D
:10181000012864D117E05BE0FFF714FD801B02286C
:1018200056D8686BC003F7D50DE0B0436863FFF787
:1018300009FD064604E0FFF705FD801B022847D896
:10184000686BC003F7D4606A002846D0696809074E
:10185000890F022943D0012636060228286805D0C0
:10186000B0432860FFF7EEFC044633E0B043286045
:10187000FFF7E8FC074604E0FFF7E4FCC01B022882
:1018800026D828688001F7D4E86A216B0009000196
:101890000843E862A16AE06A084369687B22D203D0
:1018A000914308436860286830432860FFF7CAFC0A
:1018B000044604E0FFF7C6FC001B022808D828688D
:1018C0008001F7D509E0FFF7BDFC001B022801D914
:1018D0000320FEBD28688001F5D40020FEBD012054
:1018E000FEBD00000000010000100240007000403A
:1018F00088130000F8B5040007D0002625464035BF
:10190000A662687F002802D005E00120F8BD2E778E
:10191000204600F04BF802236B77206801684022D4
:10192000914301600721E0680902884201D9002241
:1019300001E0012212030F273F02B84202D0884281
:1019400000D0A662276B002F05D1884201D92363FE
:1019500001E001202063A168606863690843216990
:10196000194308430123A1695B0219400843E16957
:101970000843216A0843A16A084321680860616B33
:10198000606AA36908431B0C0427E1683B401943C4
:1019900008432168104348602068C1697A02914376
:1019A000C1612666012068770020F8BD00B5006897
:1019B0000D4987B0884214D10C48826981140A43CA
:1019C0008261806908400590382000900220002143
:1019D0000190032002910491039069460448FFF7A7
:1019E00087FB07B000BD000000300140001002403E
:1019F00000040048FFB504460E464068FF21254616
:101A000000270531403581B0884202D1A068002806
:101A10000CD0287F012815D001202877FFF712FC71
:101A20000090687F01280FD0022789E004206877A2
:101A300004980090324611462046039B00F03EF980
:101A400005B0F0BD0220FBE7002E78D003980028F7
:101A500075D0042068770020206626640399A98049
:101A60000399E980A063A087E087E06420650720F0
:101A70000121E2680002090382422268536801D909
:101A80008B4300E00B4353600122A168D2039142D3
:101A900005D121680A6801239B039A430A602168E3
:101AA0000A68520603D40A6840231A430A60E168B0
:101AB000814218D934E020688168C90706D0007BCC
:101AC0003070E888401EE880761C0CE004980028FE
:101AD00024D0401C07D0FFF7B5FB01460098091A37
:101AE000049881421AD2E8880028E4D11BE02068DB
:101AF0008168C90706D0C0683080E888401EE88049
:101B0000B61C0DE00498002808D0401C08D0FFF750
:101B100099FB0099411A0498814201D303270FE0F1
:101B2000E8880028E3D12046009A049901F01CF9C6
:101B3000002801D020202066206E002800D0012738
:101B40000120687700202877384679E7FFB50646F8
:101B500004464036307F002781B00D46012809D069
:101B600001203077FFF76EFB0090707F012804D0D2
:101B700002279DE0022005B0F0BD002D72D0039831
:101B800000286FD00320707700202066A56303999A
:101B9000A1870399E1872064B080F0802065E0642C
:101BA0000121A068C903884205D12068016801228B
:101BB00092031143016020680168490603D401685B
:101BC0004022114301600720E16800028142606801
:101BD00023D9002802D0E08F01281AD12168288853
:101BE000C86005E020688168890706D52988C1603A
:101BF000E08F401EE087AD1C0BE0049800283ED02B
:101C0000401C06D0FFF71EFB0099411A0498814240
:101C100035D2E08F0028E5D136E0002802D0E08FF1
:101C200001282ED1E08F012803D921682888C860B7
:101C30000CE02168287808730FE020688168890724
:101C400011D5E18F012906D92988C160E08F801E56
:101C5000E087AD1C15E029780173E08F401EE08716
:101C60006D1C0EE023E00498002808D0401C08D02A
:101C7000FFF7E8FA0099411A0498814201D303273B
:101C800016E0E08F0028D8D12046009A049901F090
:101C9000A7F8002801D020202066A068002803D1E2
:101CA0002068C16880680090206E002800D001275D
:101CB000012070770020307738465CE7FFB5044696
:101CC00083B00120254640350090287F00270E462E
:101CD00001280FD001202877FFF7B4FA0190687F20
:101CE000616801280DD0CA1FFD3A08D1A1680029FA
:101CF00005D102E0022007B0F0BD042801D0022780
:101D0000FAE0002E7CD005980028FBD00698002829
:101D1000F8D0687F042801D005206877002020666D
:101D2000059921640699E9800699A980A663069918
:101D3000E1870699A187E06420650723E1681B021B
:101D4000994202D8E888012806D920684268012112
:101D500009038A43426005E02068416801221203BA
:101D60001143416020680168490603D4016840229C
:101D700011430160E1686068994242D9002802D0AD
:101D8000E08F012835D121683088C860E08F401E7F
:101D9000E087B61C2DE0009800280ED0E08F0028C8
:101DA0000BD020688168890707D53188C160E08F32
:101DB000401EE0870020B61C0090E88800280ED066
:101DC00020688168C9070AD0C0680599088005980D
:101DD000801C0590E888401EE880012000900C9847
:101DE000401C06D0FFF72EFA0199411A0C98814247
:101DF0006DD2E08F0028CED1E8880028CBD16EE0EC
:101E000079E0002802D0E08F012862D1E08F01281C
:101E100007D921683088C860E08F801EE087B61C33
:101E200057E0216830780873E08F401EE087761C09
:101E30004FE00098002818D0E08F002815D02068C7
:101E40008168890711D5E18F012906D93188C160E0
:101E5000E08F801EE087B61C05E031780173E08FCB
:101E6000401EE087761C00200090E888002824D0DF
:101E700020688168C90720D0E988012912D9C06883
:101E8000059908800598801C0590E888801EE880E8
:101E9000E88801280FD82068416801221203114305
:101EA000416008E0017B059801700598401C059091
:101EB000E888401EE880012000900C98401C08D063
:101EC000FFF7C0F90199401A0C99884201D3032702
:101ED00012E0E08F0028ACD1E8880028A9D1204684
:101EE000019A0C9900F07CFF002801D02020206688
:101EF000206E002800D00127012068770020287775
:101F00003846F8E6042204490428086902D09043C0
:101F1000086170471043FBE700E000E0F0B5E54CD6
:101F200087B0A089401C00B2A08105287EDBE24872
:101F3000007801287AD1E14801F0D6FBDF480C3067
:101F400001F086FBDD4D0C35A868FEF7A5FB0646C3
:101F50000F462868FEF7A0FB32463B4601F09AFA8E
:101F600001229207D64BFEF70DFB0022D54BFEF760
:101F7000A1FAFEF7CDFB0746E063D34ECF48716868
:101F800040680190FEF754F9D049FEF759F9D0495D
:101F9000FEF793F9CF49FEF753F90590616BFEF711
:101FA000F6F86063C548B1688068FEF741F9C74933
:101FB000FEF746F9C649FEF780F9C649FEF740F933
:101FC0000090A16BFEF7E3F8A063C34861698068E5
:101FD0000391FEF735F904907F20C0050399FEF7C1
:101FE00027F903900098A169FEF7D1F80399FEF74D
:101FF00027F90499FEF7CBF8A061A8680146FEF71F
:102000001FF9049068680146FEF71AF903902868E2
:102010000146FEF715F90399FEF7B9F80499FEF7A2
:10202000B6F8A064AD4A2169914200E040E100DACF
:1020300020612169FEF7FCF841000122E06AD20725
:1020400049085040FEF7FCF8FEF726FBA44AA54BD2
:10205000FEF77EF9FEF75CFBFF21C9050025E06174
:10206000C84201D3E56103E09F49884200DDE16198
:10207000E16938460091FEF7E3F804907F20C0053F
:102080000099FEF7D5F803908C4E0598216AFEF76B
:102090007EF80399FEF7D4F80499FEF778F86762A2
:1020A00020623846019900F0ADFB8B48B16880682A
:1020B00000F06CFCB068FEF7EFFA636E226EFEF77C
:1020C00013FB0DD30120636EC0074340276E0393BB
:1020D000B068FEF7E1FA3A46039BFEF7F1FA34D214
:1020E00004270620E75F205E874215DD012020805F
:1020F00075488168B068FEF79BF87449FEF7A0F850
:102100007349FEF7DAF87349FEF79AF8A16AFEF709
:102110003EF8A062658015E00020C0432080A069E1
:10212000FEF7BAFA636D226DFEF7B6F903910290DD
:10213000A06AFEF7B1FA039B029AFEF709F9FEF7CF
:10214000E7FAA0627F1CA7806EE0B068FEF7A4FAF1
:10215000636E226EFEF7B4FA53D20120636EC0079D
:102160004340226E02921F46B068FEF795FA3B4646
:10217000029AFEF7B9FA44D260880821401C00B2E6
:102180006080615E88420CDD0A21615E884208DA67
:102190000020C0432080A069FEF77EFA636D226DA7
:1021A0000BE00A21615E884215DB0120C0432080DC
:1021B000606CFEF771FAE36DA26DFEF76DF90746EC
:1021C0000391A06AFEF768FA3A46039BFEF7C0F84F
:1021D000FEF79EFA12E0012020803B488168B0683B
:1021E000FEF726F83949FEF72BF83949FEF765F86E
:1021F0003849FEF725F8A16AFDF7C9FFA062A5805E
:1022000012E0314825808168B068FEF711F82F4947
:10221000FEF716F82E49FEF750F82E49FEF710F893
:10222000A16AFDF7B4FFA062A069FEF735FA616507
:102230002065606CFEF730FAE165A065206AFEF764
:102240002BFAE166A066206CFEF726FA616720672C
:10225000206B4000000E1BD11F48184F8068A06102
:10226000E16B21620C37606478680146FDF7E8FF96
:102270000290019038680146FDF7E2FF0199FDF7F1
:1022800086FF0299FDF783FF20617F20C005206350
:102290000848FF220132311D2030FEF7C7FB0749F5
:1022A0000448FF22023208312830FEF7BFFBA58127
:1022B00007B0F0BD3800002000000020E40200203C
:1022C000FB210940008066C08C0200200AD7A33B96
:1022D000DA0F4940000034433C0300200000704204
:1022E0007B14AE47E17A943F0AD7A33C094910B565
:1022F000401E884201D9012010BD074C60610321B6
:10230000081F00F0D3FC0020A061072020610020FE
:1023100010BD0000FFFFFF0000E000E010B5FFF778
:10232000FDFD10BD7047704770B502462032137F27
:10233000012B1BD0012313770224547704686568AE
:102340007026B5436560046865680E68354365604E
:102350000468A5688026B543A5600068846849685C
:102360000C43846053770020107770BD022070BD4D
:1023700070B5040005D025462035687F002802D0BE
:1023800006E0012070BD00202877204600F00AF802
:1023900002206877211D206800F048FE0120687740
:1023A000002070BD08B500680121890788420FD15F
:1023B0000848C16901221143C161C069104000226F
:1023C000009011460F20FEF7A1FF0F20FEF794FFAB
:1023D00008BD000000100240F8B50546044620354F
:1023E000287F012817D001272F77022068772268DD
:1023F00090687726FF23B0431B02984390600868DB
:10240000502837D00EDC202857D006DC00284ED0CC
:10241000102840D14EE00220F8BD302850D040288E
:1024200039D13CE060282DD0702817D0012212034A
:10243000801A0ED090422ED1CB684A6889682068F5
:1024400000F036FE2068816801229203114381600A
:1024500021E020688168C908C900F8E7CB684A68AC
:102460008968206800F024FE21688868B043304302
:10247000886010E0CA684968206800F02CFE50218E
:10248000206806E0CA684968206800F035FE6021CF
:10249000206800F018FE6F7700202877F8BDCA6822
:1024A0004968206800F017FE40212068F1E700210C
:1024B0002068EEE710212068EBE720212068E8E79C
:1024C00030212068E5E7704770B50446006801696F
:1024D0000025C9438907002915DBC168C94389075D
:1024E00011D4E91E016101202077206880698007EE
:1024F000204602D0FFF7E7FF04E000F096F8204600
:1025000000F094F8257720680169C943490717D47A
:10251000C168C943490713D40421C943016102209A
:102520002077206880698005800F204602D0FFF761
:10253000CAFF04E000F079F8204600F077F825772C
:1025400020680169C943090716D4C168C94309074E
:1025500012D40821C9430161042020772068C06992
:102560008007204602D0FFF7AEFF04E000F05DF8E0
:10257000204600F05BF8257720680169C943C90649
:1025800017D4C168C943C90613D41021C9430161D6
:10259000082020772068C0698005800F204602D07F
:1025A000FFF791FF04E000F040F8204600F03EF80D
:1025B000257720680169C943C90708D1C168C943A3
:1025C000C90704D1891E0161204600F030F8206857
:1025D0000169C943090609D4C168C943090605D47C
:1025E0008021C94301612046FFF79CFE20680169F4
:1025F000C943490609D4C168C943490605D44021E5
:10260000C9430161204600F013F820680169C943FD
:10261000890609D4C168C943890605D42021C94364
:1026200001612046FFF77FFE70BD7047704770471D
:102630007047FEE710B5002000F054F800F078FB7A
:10264000002000F05DF8022000F0E0FF012000F023
:1026500049F8022000F0DAFF002000F043F810BD36
:1026600010B5002000F03EF800F062FB012000F001
:1026700047F8022000F0CAFF012000F033F80220E2
:1026800000F0C4FF002000F02DF810BDF8B506469C
:10269000002400F02FFB124F0025002000F022F84C
:1026A000022000F0B3FF012000F01CF86006040EC9
:1026B00040213846FEF7BAFD002801D0641CE4B280
:1026C000012000F0A3FF6D1CEDB2082DE5D3002E14
:1026D00003D0FFF7AFFF2046F8BDFFF7C1FFFAE7D1
:1026E0000004004810B5054B002801D0012200E08D
:1026F000002280211846FEF79EFD10BD0004004810
:1027000010B5054B002801D0012200E00022402135
:102710001846FEF790FD10BD0004004870B5044651
:1027200000F006FB0020FFF7DDFF0025E009FFF7C2
:10273000E7FF6006040E022000F068FF0120FFF7AB
:10274000D1FF022000F062FF0020FFF7CBFF022044
:1027500000F05CFF6D1CEDB2082DE7D370BD10B525
:1027600000F0E6FA0120FFF7CBFF0120FFF7BAFFE8
:10277000042000F04BFF0020FFF7C2FF042000F010
:1027800045FF0020FFF7AEFF10BD10B500F0D0FAF6
:102790000020FFF7A7FF0020FFF7B2FF042000F0A2
:1027A00035FF0120FFF79EFF042000F02FFF0120DE
:1027B000FFF7A6FF10BD000070B5002400F09AFAE4
:1027C0000120FFF79DFF012000F020FF0120FFF70F
:1027D00089FF012000F01AFF094D07E0641CE4B2F4
:1027E000FA2C03D9FFF7D1FF012070BD4021284604
:1027F000FEF71CFD0028F1D1FFF774FF002070BD2B
:1028000000040048F3B55A488BB041680C98FDF7B6
:102810000FFD584C61680091FDF712FD5649FDF718
:102820004CFD5649FDF70CFD55490968FDF704FDBF
:10283000E064544D0890686802900146A068FDF776
:10284000F7FCA9680191FDF7F3FC294610390860EF
:10285000EE680122D207059656404E608E60E7680A
:10286000CF600099FDF7ECFC2968FDF790FC04901F
:1028700030460099FDF7E4FC06460299FDF787FC17
:10288000039030460199FDF782FC0290384600998A
:10289000FDF7D6FC0599FDF77AFC099008990B988D
:1028A000FDF7C6FCE06205902078FDF7EEFE0A9089
:1028B0000499FDF7C5FC2063064602990A98FDF7C6
:1028C000BFFC6063079031460A98FDF7B9FC2169A7
:1028D000FDF75DFC0746A06339463046FDF7EDFC89
:1028E000E063019039460798FDF7E7FC66642064D1
:1028F000074603990A98FDF7A3FCA06406903146A9
:102900000198FDF79DFC0499FDF796FC2860069957
:102910000198FDF795FC0399FDF78EFC6860314640
:102920003846FDF78DFC0299FDF786FCA860384615
:102930000699FDF785FC0999FDF77EFCE86005998D
:102940000198FDF77DFC0899FDF721FC0C49086012
:1029500038460599FDF774FCA16AFDF718FC01469D
:10296000A0620C98FDF764FC074908600DB0F0BD4B
:102970008C020020B8000020DA0F494000003443E8
:10298000780000200C030020B0000020F3B5634C59
:102990008DB0216D08910E98FDF74AFC05466049FF
:1029A000FDF74EFC6062616828460091FDF748FC27
:1029B0005C49FDF782FC5C49FDF742FC5B49096814
:1029C000FDF7E5FB5A4D0790686802900146A06943
:1029D000FDF72EFCA9680191FDF72AFC2946103964
:1029E00002460860E86801230646DB075840486055
:1029F00007468860E0690490C86010460099FDF7BA
:102A00001FFC2968FDF7C3FB039038460099FDF7CA
:102A100017FC07460299FDF7BAFB02903846019968
:102A2000FDF7B5FB019000990498FDF709FC3146CC
:102A3000FDF7ADFB0B9007990D98FDF7F9FB0646E6
:102A4000616DFDF7F5FBA0650A90666509966078F3
:102A5000FDF71BFE0C900399FDF7F2FBE0650646BF
:102A600001990C98FDF7ECFB2066069031460C9816
:102A7000FDF7E6FB216AFDF78AFB074660663946EB
:102A80003046FDF71AFCA066009039460698FDF71F
:102A900014FCE0660490266702990C98FDF7D0FBC1
:102AA0000746606731460098FDF7CAFB0399FDF7BA
:102AB000C3FB286039460098FDF7C2FB0299FDF779
:102AC000BBFB686031460498FDF7BAFB0199FDF73E
:102AD000B3FBA86039460498FDF7B2FB0B99FDF7EC
:102AE000ABFBE86009990098FDF7AAFB0799FDF791
:102AF0004EFB0E49086004996069FDF7A1FB0A9935
:102B0000FDF79EFB0899FDF742FB014620650E98F4
:102B1000FDF78EFB074908600FB0F0BDB80000203C
:102B200000007A44DA0F4940000034437C00002062
:102B30002C030020B400002010B511480F4901609B
:102B40000146F43101631C314163042141600021DD
:102B500007228160120402610122C16052054261B4
:102B600081610122C26102624262C2628162FEF739
:102B700013F9002800D0FEE710BD000000640040FB
:102B8000A401002070B51D4886B042690121890565
:102B90000A43426142690A400592426909110A43A7
:102BA000426142690A400592426949100A43426102
:102BB0004069134E08400590002202213046FEF77E
:102BC0003AFB0122C0213046FEF735FB022000907F
:102BD00000200124032502900194694603953046A4
:102BE000FEF786FAC020009001946946039502948E
:102BF0003046FEF77DFA06B070BD000000100240BE
:102C00000004004810B511480F490160FF2105314B
:102C1000416007221202C26000218160022202612B
:102C20000122426152028261016210224162C2614C
:102C3000816207220163C2624163FEF75BFE0028E6
:102C400000D0FEE710BD000000300140E801002088
:102C500010B50121124886B08907002412C0046013
:102C600084601049046141600838FFF781FB002847
:102C700000D0FEE701200003009069460848FFF7F6
:102C8000ABFB002800D0FEE7049404A90448059497
:102C9000FFF74AFB002800D0FEE706B010BD000099
:102CA0004C020020FFFF0000704700008307FF2256
:102CB000DB0E9A408907090E994000280BDA0007BD
:102CC000000F0838830808489B001818C36993430D
:102CD0000B43C3617047830804489B001B181868A6
:102CE000904308431860704700ED00E000E400E006
:102CF0007047000000B50C4887B042690121890483
:102D00000A4342614069084005904020009000203D
:102D10000190012002900320039069460348FEF7CA
:102D2000E7F907B000BD00000010024000040048B1
:102D300000B50B4887B04269012189040A4342610A
:102D400040690840059040200090012001900290C9
:102D50000320039069460348FEF7CAF907B000BD97
:102D60000010024000040048F7B504464068FF2602
:102D7000053682B01546B0420CD10121A068C903C6
:102D8000884202D04911884204D12068016840225B
:102D9000914301600095002280212046039B00F0B2
:102DA00090F82027002813D16068B04216D1A0689F
:102DB000B902884202D0491188420FD103210095FF
:102DC000002249022046039B00F030F8002805D07D
:102DD000206E38432066032005B0F0BD0020FBE7DD
:102DE000F8B50F460B461546009203210446002213
:102DF000C90200F01BF82026002812D13B46002211
:102E000080212046009500F05CF8002809D10321BC
:102E10003B46002249022046009500F007F80028B2
:102E200003D0206E304320660320F8BDF8B51D4660
:102E300017460E4604463DE0032149028E4205D165
:102E4000002F03D1017B684601700078681C31D0E7
:102E5000002D05D0FEF7F6F90699401AA84229D3AD
:102E600020684168E022914341606068C11FFD39DC
:102E70000CD10121A068C903884202D049118842BF
:102E800004D1206801684022914301600120A16AB9
:102E90004003814207D121680A6882430A602168A1
:102EA0000A6802430A6001204034607700202077DE
:102EB0000320F8BD206881683140B942BCD10020B0
:102EC000F8BDF8B51D4617460E46044633E0681CAB
:102ED00031D0002D05D0FEF7B5F90699401AA84269
:102EE00029D320684168E022914341606068C11F96
:102EF000FD390CD10121A068C903884202D04911D3
:102F0000884204D120680168402291430160012079
:102F1000A16A4003814207D121680A6882430A609E
:102F200021680A6802430A6001204034607700206B
:102F300020770320F8BD206881683046884304D09C
:102F40000020B842C3D10020F8BD0120F9E7704746
:102F500010B5FEF77DF9FFF7E1F910BD30B591B07E
:102F600001200090019000040A9000010225002435
:102F70000B9009950C946846FEF7D0FA002800D013
:102F8000FEE707200D900F9401210E9510940DA8D7
:102F9000FEF7C0F9002800D0FEE7FEF765FA7D21B4
:102FA000C900FDF7C3F8FFF7A1F90420FEF7AAFF57
:102FB00000221146501EFEF7A9F911B030BD0000E5
:102FC000134801680122114301604168114A114010
:102FD00041600168104A11400160016801229204B9
:102FE0009143016041683F22120491434160C16AEC
:102FF00009090901C162016BFF22D43291430163C7
:10300000416B49084900416300218160704700001D
:10301000001002400CB8FF08FFFFF6FE10B5024892
:10302000FFF752FA10BD00004C020020F0B5026814
:103030001A4B0124A4071A4D984203D0A04201D094
:10304000A84203D17026B2434E683243154E164F44
:1030500098420AD0A04208D0A84206D0134CA04201
:1030600003D0B04201D0B84204D103242402A243C9
:10307000CC6822438024A2434C69224302608A68C0
:10308000C2620A688262984203D0B04201D0B8425C
:1030900001D10969016301214161F0BD002C0140AA
:1030A000000400400044014000480140002000406E
:1030B00030B58468FF252D021B021343AC430B433C
:1030C0002343836030BD826870239A430A430721FB
:1030D0000A438260704730B5036A046A640864007A
:1030E00004628469F025AC43120122430A24A343FD
:1030F0000B438261036230BD30B5036A1024A343E1
:1031000003628469036A0F252D031203AC43224333
:10311000A024A343090119438261016230BD20212B
:10312000020C01D010211046020A01D010460839C5
:10313000020901D01046091F820801D01046891EDD
:10314000420801D0881E7047081A70474900CA0219
:103150000243100000D004204A0D01D00122104388
:10316000044A490D914201D102210843012800D1AE
:1031700005207047FF070000F8B504464F1EC80041
:103180000838211815461E46086849683A4606233D
:103190009A4310D02A463346FDF78CF93A46D200BE
:1031A000083AA3181A687F1E5B68FDF7D1F806225B
:1031B0003B469343EED1022F23D0042F11D0062F8C
:1031C0002FD12A463346FDF775F9E36AA26AFDF767
:1031D000BFF82A463346FDF76DF9636A226AFDF7A8
:1031E000B7F82A463346FDF765F9E369A269FDF7AA
:1031F000AFF82A463346FDF75DF963692269FDF7AA
:10320000A7F82A463346FDF755F9E368A268FDF7AB
:103210009FF82A463346FDF74DF963682268FDF7AB
:1032200097F8F8BD10B50122FDF75BFB10BD10B596
:10323000FDF78EF810BD0000034A10B500201107FD
:10324000FDF74FFB10BD000001FDFFFF02E008C8C5
:10325000121F08C1002AFAD170477047002001E010
:1032600001C1121F002AFBD170470000014908600C
:1032700070470000A0010020F0B589B004460D465B
:103280004800069172494008884215DB714988421E
:1032900003DC884207D1002C05D020462946FFF7E1
:1032A000C1FF09B0F0BD6C48002D02DD6B4909B0CB
:1032B000F0BD6B4909B0F0BD6A49884211DA6A492C
:1032C00088420BDA20462946FFF740FF042801D147
:1032D000FFF7B2FF2046294609B0F0BD0026F643AD
:1032E0005DE06D0061496D08884232DA60498842CC
:1032F00019DA0026012332469B0720462946FDF7AE
:1033000027F807460191012220462946FDF7E9FAF0
:103310000022584BFDF7C0F83A46019BFDF732F901
:1033200004460D463BE001260022524B204629462A
:10333000FDF70EF80746009100224E4B2046294625
:10334000FDF7AAF83A46009BFDF71CF904460D4626
:1033500025E04949884219DA02260022474B2046D7
:103360002946FDF7A7F80022424BFCF7F1FF07467C
:1033700002910022414B20462946FDF78DF83A463E
:10338000029BFDF7FFF804460D4608E0032622469F
:103390002B4600203A49FDF7F5F804460D46224633
:1033A0002B4610461946FDF785F807460B460246A0
:1033B0000191FDF77FF80246029032480B460391D7
:1033C00006217844FFF7D8FE3A46019BFDF772F8D4
:1033D00000902D48019105217844039B029AFFF744
:1033E000CBFE039B029AFDF765F802460B46019956
:1033F0000098002E0BDAFCF7ABFF22462B46FDF7B8
:1034000059F822462B46FDF74DF809B0F0BDFCF700
:103410009FFF22462B46FDF74DF81C4AF6007A44E2
:1034200093191A685B68FDF737F822462B46FDF7BB
:1034300033F8174A7A4493191A685B68FDF732F833
:10344000069A002AE1DA0122D207514009B0F0BD04
:10345000000010440000F07F182D4454FB21F93F78
:10346000FB21F9BF0000DC3F0000203E0000F33FDD
:103470000000E63F0000F03F008003400000F83FFE
:103480000000F0BF520C0000140C0000AE0B000056
:10349000780B0000F0B51FB4039B54425D00164644
:1034A00026439C46F40F6D084B004E4E5B082C43A0
:1034B0008E46B44205D847420743FC0F1C43B44232
:1034C00004D96346FFF7B3FE05B0F0BD464E66442F
:1034D000164309D0CC0F6646B61702273E40264356
:1034E00004461C4304D00BE0FFF7C6FE05B0F0BD58
:1034F000002EFBD0012EF9D0022E32D0032E34D074
:1035000014462C430BD0374CA54216D1A3420AD106
:10351000012189078D438B43194603950DE07046C1
:1035200000280FDB25E0314F7F44002E0ED0012E06
:1035300010D0022E15D0032E17D0A3421DD17046F5
:10354000002816DA2A482B4905B0F0BD796838689A
:1035500005B0F0BD01227968D2073868514005B046
:10356000F0BD2348244905B0F0BD2148234905B0EA
:10357000F0BD1F48224905B0F0BD5B1B1B153C2B5D
:1035800002DD1B481E490FE06446002C05DA3C248E
:10359000E34202DA0020014606E0039BFCF7F2FF5B
:1035A00049004908FFF768FE002EE4D0012E0BD039
:1035B000144A154B022E0CD0FCF76EFF0C4A0E4B32
:1035C000FCF76AFF05B0F0BD0122D207514005B0FB
:1035D000F0BDFCF761FF064A074BFCF763FF05B03F
:1035E000F0BD00000000F07F000010C01C0B0000C8
:1035F000182D4454FB21F9BFFB210940FB2109C0D0
:10360000FB21F93F075C143326A6A13C10B50E49F7
:1036100000220B685A620A6813680124234313606E
:103620003022096850434A6A8242FCD3086A074A3A
:10363000104207D1086A9210104203D1086840086E
:103640004000086010BD00004C0200201111000075
:103650007CB50446684600F025F8002801D001201A
:103660007CBD69460020085EFDF704F80C49096836
:103670000D46FCF7E5FD206069460220085EFCF778
:10368000F9FF2946FCF7DCFD606069460420085E0E
:10369000FCF7F0FF2946FCF7D3FDA06000207CBDBD
:1036A000100000201CB50446062269463B2000F0AD
:1036B000D9F8002801D001201CBD6846007801021D
:1036C000684640780818208068468078010268467D
:1036D000C078081860806846007901026846407921
:1036E0000818A08000201CBD7CB50446684600F088
:1036F00025F8002801D001207CBD69460020085E25
:10370000FCF7B8FF0C4949680D46FCF799FD2060AD
:1037100069460220085EFCF7ADFF2946FCF790FDE4
:10372000606069460420085EFCF7A4FF2946FCF7A8
:1037300087FDA06000207CBD100000201CB5044661
:1037400006226946432000F08DF8002801D00120B0
:103750001CBD684600780102684640780818208041
:103760006846807801026846C0780818608068461C
:1037700000790102684640790818A08000201CBD2D
:103780001CB580216B2000F0DFF86420FDF7A1FC60
:1037900001216B2000F0D8F86420FDF79AFCF52099
:1037A000694608702D4C002202212046FDF743FD9A
:1037B0000A23012269462A48FEF7C8F9002810D1D9
:1037C0000A23012201A92648FEF714F9002808D18E
:1037D000012202212046FDF72EFD684600791228BD
:1037E00001D001201CBD00216C2000F0ADF80A20A2
:1037F000FDF76FFC0021192000F0A6F80A20FDF764
:1038000068FC04211A2000F09FF80A20FDF761FCF3
:1038100004211D2000F098F80A20FDF75AFC08202A
:1038200000F044F80A20FDF754FC102000F064F882
:103830000A20FDF74EFC00211E2000F085F80A202A
:10384000FDF747FC0021232000F07EF80A20FDF759
:1038500040FC6420FDF73DFC00201CBD0004004836
:10386000E8010020F8B50D4680210843694608703C
:103870000C4E1446002202213046FDF7DCFC0523E5
:10388000012269460848FEF761F91E2322462946AF
:103890000548FEF7AFF8012202213046FDF7CBFCC8
:1038A0000020F8BD00040048E801002070B50F4C6E
:1038B000050009D0082D09D07320C005102D07D0B0
:1038C000182D0FD0102503E0094801E0392000062B
:1038D00008492060FCF7B4FC206029461C2000F059
:1038E00033F870BD1D204006F2E7000010000020F4
:1038F000294880380AE81C4170B50D4C050008D0F5
:10390000082D08D0102D11D00A48182D04D01825E4
:1039100002E0094800E0094809496060FCF790FCB2
:10392000606029461B2000F00FF870BD0548F3E7E2
:1039300010000020F5017A3DF501FA3BF5017A3CD3
:1039400003FA8E3CF501FA3C38B56A4610705170A6
:103950000B4C002202212046FDF76DFC14230222AD
:1039600069460848FEF7F2F8002801D0012038BD6A
:10397000012202212046FDF75EFC002038BD000038
:1039800000040048E8010020F1B584B00027684633
:10399000FFF7AAFE20460099FCF7F9FB04462846EB
:1039A0000199FCF7F4FB054630460299FCF7EFFB62
:1039B00006460520FDF78DFB7F1C642FE7DB2046C4
:1039C000094C2146FCF779FC0499086028462146F9
:1039D000FCF773FC0499486030462146FCF76DFC07
:1039E0000499886005B0F0BD0000C84210B5002100
:1039F0000446C943FCF79FFC084A6110541A21464B
:103A0000FCF71EFC2146FCF71BFCFF218905FCF797
:103A100013FC2146FCF714FC10BD0000DF59375F92
:103A200010B5242241211C2000F0B8F841211C20AF
:103A300000F053F8124C2428607001D0012010BD12
:103A40000A20FDF746FBC02242211C2000F0A6F808
:103A500042211C2000F041F8A070C02801D00220B3
:103A600010BD0A20FDF735FB00211C2000F035F8C1
:103A70002070102801D0032010BD002010BD0000D0
:103A800018000020F8B51E4614460F460546FEF7FE
:103A900066FE2846FEF742FEFEF78EFE3846FEF72B
:103AA0003DFEFEF789FEFEF75AFE6D1CE8B2FEF7FA
:103AB00035FEFEF781FE0025761E05E00120FEF7AB
:103AC000E5FD2070641C6D1CB542F7DB0020FEF79D
:103AD000DDFD2070FEF759FEF8BD70B50D460446B9
:103AE000FEF73DFE2046FEF719FEFEF765FE28466E
:103AF000FEF714FEFEF760FEFEF731FE641CE0B236
:103B0000FEF70CFEFEF758FE0020FEF7BFFD044650
:103B1000FEF73BFE204670BDF0B585B001220A21BC
:103B20001C2000F03BF8062302AA03211C20FFF70B
:103B3000A9FF694608228A5E0A800A20085E48803A
:103B40000C2506464D5F8D801046FCF793FD114C09
:103B50006168FCF76DFB2169FCF7AFFB0746304657
:103B6000FCF788FDA168FCF763FB6169FCF7A5FB26
:103B700006462846FCF77EFDE168FCF759FBA16983
:103B8000FCF79BFB0146044807604660816001200A
:103B900005B0F0BD18000020D802002070B5154611
:103BA0000E460446FEF7DBFD2046FEF7B7FDFEF7A6
:103BB00003FE3046FEF7B2FDFEF7FEFD2846FEF797
:103BC000ADFDFEF7F9FDFEF7E0FD70BDF7B5074668
:103BD000BF4D92B0BD4868610020A86114990846A5
:103BE000FCF72EFB139906460846FCF729FB044612
:103BF00039460846FCF724FB2146FCF7C8FA314653
:103C0000FCF7C5FAFFF7F2FE0446A86221463846E3
:103C1000FCF716FB129021461398FCF711FB13904A
:103C200021461498FCF70CFB1490A878002810D1BA
:103C300012984000000E0CD013984000000E08D0DF
:103C4000A448129901601399416014998160012080
:103C5000A8700020B5E09F4C206809900F90E9699A
:103C60000F46FCF7EDFA00906668394630460A9632
:103C7000FCF7E6FA0190A468394620460B94FCF75D
:103C8000DFFA0290296A0F980F46FCF7D9FA0390E1
:103C900039463046FCF7D4FA049039462046FCF702
:103CA000CFFA0590696A0F980F46FCF7C9FA06909B
:103CB00039463046FCF7C4FA079039462046FCF7EF
:103CC000BFFA0890834E002468680C360C90A70059
:103CD0006846C1590C98FCF7B3FAF159FCF7ACFAF5
:103CE000641CF051092CF2DBB0680B99FCF7A8FAC0
:103CF000074670680A99FCF7A3FA044630680999E8
:103D0000FCF79EFA2146FCF742FA3946FCF73FFAE7
:103D10001299FCF78DFAE861074670690B99FCF778
:103D20008FFA0D9030690A99FCF78AFA0446F06818
:103D30000999FCF785FA2146FCF729FA0D99FCF759
:103D400026FA1399FCF774FA28620446306A0B9934
:103D5000FCF776FA0B90F0690A99FCF771FA0A9071
:103D6000B0690999FCF76CFA0A99FCF710FA0B99FB
:103D7000FCF70DFA1499FCF75BFA01466862FCF750
:103D80005FFA214609900846FCF75AFA044639467C
:103D90000846FCF755FA2146FCF7F9F90999FCF7B2
:103DA000F6F9A8614B4A0020303281007358401C5C
:103DB00053500928F9DB48496869884209DD1098A1
:103DC000401C1090FCF756FCA968FCF7BDFC00D223
:103DD00041E7404C3034206AFCF75EFC06460F4653
:103DE000E069FCF759FC32463B46FFF753FB0122E2
:103DF00092073A4BFCF7C6FB0022394BFCF75AFB03
:103E0000FCF786FC21463C390860E0690146FCF776
:103E100017FA0646206A0146FCF712FA3146FCF70B
:103E2000B6F9FCF739FC00F093F806460F4601217D
:103E3000A069C9074840FCF72FFC32463B46FFF714
:103E400029FB01229207254BFCF79CFB0022244B07
:103E5000FCF730FBFCF75CFC21463C3948602068ED
:103E6000FCF71AFC06460F46E068FCF715FC3246E4
:103E70003B46FFF70FFB01229207184BFCF782FB32
:103E80000022174BFCF716FBFCF742FC0446E96ADC
:103E9000FCF7CEF91349884202DDE868401E05E0D0
:103EA000114A2946904202D9C868401CE860EC6279
:103EB000FF21E86869314843FCF7DCFB2146FCF749
:103EC00066F904490C39886015B0F0BD0050C3474D
:103ED00030010020480300200AD7A33BFB21094002
:103EE0000080664000004843000048C3FDF7B8F971
:103EF000FFF734F8FEF746FEFEF71EFEFEF782FEE1
:103F0000FEF7A6FEFFF73CFC0028FBD1FFF788FD7B
:103F10000028FBD10B48FFF737FD0B4C0B4D01265A
:103F2000FDF7B8FA6060FDF79FFAA060FDF7A2FA0E
:103F3000E060FFF7F1FD07CD0C3DFFF747FE26706F
:103F4000EEE700008C02002000000020D8020020D4
:103F5000F8B506460C46FCF7DAFC051E0F4600D005
:103F60000120014349000B484908411AC90F0DD0EF
:103F7000002E01D0012100E000210C43610049081E
:103F8000401AC00F02D10120FFF770F928463946C8
:103F9000F8BD00000000F07F0000000000000000FD
:103FA00001020304060708090000000001020304DF
:103FB0004FBB610567ACDD3F182D4454FB21E93F41
:103FC0009BF681D20B73EF3F182D4454FB21F93F30
:103FD000E2652F227F2B7A3C075C143326A6813CB6
:103FE000BDCBF07A8807703C075C143326A6913C61
:103FF000C4EB98999999C9BF711623FEC671BCBFCD
:104000006D9A74AFF2B0B3BF9AFDDE522DDEADBF34
:104010002F6C6A2C44B4A2BF0D5555555555D53F4C
:10402000FF8300922449C23F6E204CC5CD45B73F67
:10403000513DD0A0660DB13FEB0D76244B7BA93FDF
:1040400011DA22E33AAD903F0000000000000000CA
:104050007040000800000020A4010000D4090008FE
:10406000C4400008A4010020C40700005C3200081E
:10407000012A8B803F0481120512648388134D0A44
:10408000D7A33C083A2308991802303B9808B81E79
:1040900085EB51B8AE6CE16B01015859942C409CF2
:1040A00045082DCDCCCC3D04210354FA443A057883
:1040B00029E00B124843EC012629B40921105312C0
:0440C0007A00000082
:04000005080000C12E
:00000001FF
